1MG1866340100019710102024000000015220241000050000000000120ATSENFE                                                                                                                                                                                                                                                                                                                                            
2MG24059610000129J42042513000105SERV0026082024NFS000000000000173A000000000000000000000000030000007ECE.HSEW.V3HB.1YVP                               www.nfe-cidades.com.br                                                                                                                                                                                                                                    
2MG24059610000129J23447955000197SERV0026082024NFS000000000000392A000000000000000000000000020000002B4B.YCDO.RQHI.KC2R                               www.nfe-cidades.com.br                                                                                                                                                                                                                                    
2MG06152459000197J49497830000165SERV0030082024NFS000000000000032A0000000000000000000000000008450076H9.X3OX.DEMM.RU96                               www.nfe-cidades.com.br                                                                                                                                                                                                                                    
2MG50765612000143J23447955000197SERV0003092024NFS000000000000399A000000000000000000000000002600002V9G.RFH2.LJU6.VI6U                               www.nfe-cidades.com.br                                                                                                                                                                                                                                    
2MG25167813000100J28333538000137SERV0009092024NFS000000000000725C0000000000000000000000000008000010PU.SIFJ.PMCY.WEZU                               www.nfe-cidades.com.br                                                                                                                                                                                                                                    
2MG16847535000132J05727757000103SERV0018092024NFS000000000002239A00000000000000000000000000012500245A.AAOM.K191.6FT9                               www.nfe-cidades.com.br                                                                                                                                                                                                                                    
2MG06152459000197J23447955000197SERV0026092024NFS000000000000441A000000000000000000000000001000001Z4J.PD21.7FFM.1HAC                               www.nfe-cidades.com.br                                                                                                                                                                                                                                    
2MG24059610000129J23928782000200SERV0001102024NFS000000000081374A000000000000000000000000000422002EVL.2LBH.V321.JRN1                               www.nfe-cidades.com.br                                                                                                                                                                                                                                    
900000000800000000000000000000002567731934                                                                                                                                                                                                                                                                                                                                                                   